{
  "abi": [
    {
      "inputs": [
        {
          "internalType": "address",
          "name": "",
          "type": "address"
        }
      ],
      "name": "agreements",
      "outputs": [
        {
          "internalType": "address payable",
          "name": "seller",
          "type": "address"
        },
        {
          "internalType": "uint256",
          "name": "amount",
          "type": "uint256"
        },
        {
          "internalType": "uint256",
          "name": "deadline",
          "type": "uint256"
        },
        {
          "internalType": "bool",
          "name": "active",
          "type": "bool"
        }
      ],
      "stateMutability": "view",
      "type": "function"
    },
    {
      "inputs": [
        {
          "internalType": "address",
          "name": "buyer",
          "type": "address"
        }
      ],
      "name": "getAmount",
      "outputs": [
        {
          "internalType": "uint256",
          "name": "",
          "type": "uint256"
        }
      ],
      "stateMutability": "view",
      "type": "function"
    },
    {
      "inputs": [
        {
          "internalType": "address",
          "name": "buyer",
          "type": "address"
        }
      ],
      "name": "getDeadline",
      "outputs": [
        {
          "internalType": "uint256",
          "name": "",
          "type": "uint256"
        }
      ],
      "stateMutability": "view",
      "type": "function"
    },
    {
      "inputs": [
        {
          "internalType": "address",
          "name": "buyer",
          "type": "address"
        }
      ],
      "name": "getSeller",
      "outputs": [
        {
          "internalType": "address",
          "name": "",
          "type": "address"
        }
      ],
      "stateMutability": "view",
      "type": "function"
    },
    {
      "inputs": [
        {
          "internalType": "address",
          "name": "buyer",
          "type": "address"
        }
      ],
      "name": "isActive",
      "outputs": [
        {
          "internalType": "bool",
          "name": "",
          "type": "bool"
        }
      ],
      "stateMutability": "view",
      "type": "function"
    },
    {
      "inputs": [],
      "name": "recallFunds",
      "outputs": [],
      "stateMutability": "nonpayable",
      "type": "function"
    },
    {
      "inputs": [],
      "name": "releaseFunds",
      "outputs": [],
      "stateMutability": "nonpayable",
      "type": "function"
    },
    {
      "inputs": [
        {
          "internalType": "address payable",
          "name": "seller",
          "type": "address"
        },
        {
          "internalType": "uint256",
          "name": "deadline",
          "type": "uint256"
        }
      ],
      "name": "startEscrow",
      "outputs": [],
      "stateMutability": "payable",
      "type": "function"
    },
    {
      "inputs": [
        {
          "internalType": "address payable",
          "name": "buyer",
          "type": "address"
        }
      ],
      "name": "voidAgreement",
      "outputs": [],
      "stateMutability": "nonpayable",
      "type": "function"
    }
  ],
  "bytecode": {
    "object": "0x608060405234801561001057600080fd5b50610779806100206000396000f3fe6080604052600436106100865760003560e01c806369d895751161005957806369d89575146101555780639f8a13d71461016a578063a2213262146101b6578063a323d29e146101fd578063f5a797671461024e57600080fd5b8063179cfd801461008b5780632373eed1146100a05780633ce2aa99146100b557806346d6a60e14610135575b600080fd5b61009e6100993660046106a7565b610287565b005b3480156100ac57600080fd5b5061009e610403565b3480156100c157600080fd5b506101046100d03660046106d3565b60006020819052908152604090208054600182015460028301546003909301546001600160a01b0390921692909160ff1684565b604080516001600160a01b039095168552602085019390935291830152151560608201526080015b60405180910390f35b34801561014157600080fd5b5061009e6101503660046106d3565b6104ee565b34801561016157600080fd5b5061009e610611565b34801561017657600080fd5b506101a66101853660046106d3565b6001600160a01b031660009081526020819052604090206003015460ff1690565b604051901515815260200161012c565b3480156101c257600080fd5b506101ef6101d13660046106d3565b6001600160a01b031660009081526020819052604090206002015490565b60405190815260200161012c565b34801561020957600080fd5b506102366102183660046106d3565b6001600160a01b039081166000908152602081905260409020541690565b6040516001600160a01b03909116815260200161012c565b34801561025a57600080fd5b506101ef6102693660046106d3565b6001600160a01b031660009081526020819052604090206001015490565b6001600160a01b03821633036102ef5760405162461bcd60e51b815260206004820152602260248201527f457363726f773a20416464726573736573206d7573742062652064697374696e60448201526118dd60f21b60648201526084015b60405180910390fd5b6000341161033f5760405162461bcd60e51b815260206004820152601860248201527f457363726f773a205061796d656e74206e6f742073656e74000000000000000060448201526064016102e6565b3360009081526020819052604090206003015460ff16156103b25760405162461bcd60e51b815260206004820152602760248201527f457363726f773a20416c72656164792061637469766520666f722074686973206044820152666164647265737360c81b60648201526084016102e6565b33600090815260208190526040902080546001600160a01b0319166001600160a01b03939093169290921782553460018084019190915560028301919091556003909101805460ff19169091179055565b3360009081526020819052604090206003015460ff166104355760405162461bcd60e51b81526004016102e6906106f7565b336000908152602081905260409020600201544210156104975760405162461bcd60e51b815260206004820152601c60248201527f457363726f773a20446561646c696e65206e6f7420796574206869740000000060448201526064016102e6565b3360008181526020819052604080822060010154905181156108fc0292818181858888f193505050501580156104d1573d6000803e3d6000fd5b50336000908152602081905260409020600301805460ff19169055565b6001600160a01b03811660009081526020819052604090206003015460ff166105295760405162461bcd60e51b81526004016102e6906106f7565b6001600160a01b038181166000908152602081905260409020541633146105a95760405162461bcd60e51b815260206004820152602e60248201527f457363726f773a204f6e6c79207468652062757965722063616e20766f69642060448201526d1d1a1a5cc81859dc99595b595b9d60921b60648201526084016102e6565b6001600160a01b03811660008181526020819052604080822060010154905181156108fc0292818181858888f193505050501580156105ec573d6000803e3d6000fd5b506001600160a01b03166000908152602081905260409020600301805460ff19169055565b3360009081526020819052604090206003015460ff166106435760405162461bcd60e51b81526004016102e6906106f7565b33600090815260208190526040808220805460019091015491516001600160a01b03909116926108fc831502929190818181858888f193505050501580156104d1573d6000803e3d6000fd5b6001600160a01b03811681146106a457600080fd5b50565b600080604083850312156106ba57600080fd5b82356106c58161068f565b946020939093013593505050565b6000602082840312156106e557600080fd5b81356106f08161068f565b9392505050565b6020808252602c908201527f457363726f773a204e6f206163746976652061677265656d656e7420666f722060408201526b74686973206164647265737360a01b60608201526080019056fea26469706673582212200e1e4bb76e33b59eaa6ce8e36bcfb83f41aff903e6ed523abc167f01714fae4064736f6c634300080f0033",
    "linkReferences": {}
  },
  "methodIdentifiers": {
    "agreements(address)": "3ce2aa99",
    "getAmount(address)": "f5a79767",
    "getDeadline(address)": "a2213262",
    "getSeller(address)": "a323d29e",
    "isActive(address)": "9f8a13d7",
    "recallFunds()": "2373eed1",
    "releaseFunds()": "69d89575",
    "startEscrow(address,uint256)": "179cfd80",
    "voidAgreement(address)": "46d6a60e"
  },
  "id": 6
}