{
  "abi": [
    {
      "inputs": [
        {
          "internalType": "address",
          "name": "",
          "type": "address"
        }
      ],
      "name": "agreements",
      "outputs": [
        {
          "internalType": "address",
          "name": "seller",
          "type": "address"
        },
        {
          "internalType": "uint256",
          "name": "amount",
          "type": "uint256"
        },
        {
          "internalType": "uint64",
          "name": "timeLimit",
          "type": "uint64"
        },
        {
          "internalType": "bool",
          "name": "active",
          "type": "bool"
        }
      ],
      "stateMutability": "view",
      "type": "function"
    },
    {
      "inputs": [
        {
          "internalType": "address",
          "name": "buyer",
          "type": "address"
        }
      ],
      "name": "getAmount",
      "outputs": [
        {
          "internalType": "uint256",
          "name": "",
          "type": "uint256"
        }
      ],
      "stateMutability": "view",
      "type": "function"
    },
    {
      "inputs": [
        {
          "internalType": "address",
          "name": "buyer",
          "type": "address"
        }
      ],
      "name": "getSeller",
      "outputs": [
        {
          "internalType": "address",
          "name": "",
          "type": "address"
        }
      ],
      "stateMutability": "view",
      "type": "function"
    },
    {
      "inputs": [
        {
          "internalType": "address",
          "name": "buyer",
          "type": "address"
        }
      ],
      "name": "getTimeLimit",
      "outputs": [
        {
          "internalType": "uint64",
          "name": "",
          "type": "uint64"
        }
      ],
      "stateMutability": "view",
      "type": "function"
    },
    {
      "inputs": [
        {
          "internalType": "address",
          "name": "buyer",
          "type": "address"
        }
      ],
      "name": "isActive",
      "outputs": [
        {
          "internalType": "bool",
          "name": "",
          "type": "bool"
        }
      ],
      "stateMutability": "view",
      "type": "function"
    },
    {
      "inputs": [
        {
          "internalType": "address",
          "name": "seller",
          "type": "address"
        },
        {
          "internalType": "uint64",
          "name": "timeLimit",
          "type": "uint64"
        }
      ],
      "name": "startEscrow",
      "outputs": [],
      "stateMutability": "payable",
      "type": "function"
    }
  ],
  "bytecode": {
    "object": "0x608060405234801561001057600080fd5b5061049d806100206000396000f3fe6080604052600436106100555760003560e01c80633ce2aa991461005a5780639f8a13d7146100f6578063a323d29e14610149578063a734cef71461019a578063d0574aaf146101f6578063f5a797671461020b575b600080fd5b34801561006657600080fd5b506100b6610075366004610401565b6000602081905290815260409020805460018201546002909201546001600160a01b03909116919067ffffffffffffffff811690600160401b900460ff1684565b604080516001600160a01b039095168552602085019390935267ffffffffffffffff90911691830191909152151560608201526080015b60405180910390f35b34801561010257600080fd5b50610139610111366004610401565b6001600160a01b0316600090815260208190526040902060020154600160401b900460ff1690565b60405190151581526020016100ed565b34801561015557600080fd5b50610182610164366004610401565b6001600160a01b039081166000908152602081905260409020541690565b6040516001600160a01b0390911681526020016100ed565b3480156101a657600080fd5b506101dd6101b5366004610401565b6001600160a01b031660009081526020819052604090206002015467ffffffffffffffff1690565b60405167ffffffffffffffff90911681526020016100ed565b610209610204366004610423565b610252565b005b34801561021757600080fd5b50610244610226366004610401565b6001600160a01b031660009081526020819052604090206001015490565b6040519081526020016100ed565b6001600160a01b03821633036102ba5760405162461bcd60e51b815260206004820152602260248201527f457363726f773a20416464726573736573206d7573742062652064697374696e60448201526118dd60f21b60648201526084015b60405180910390fd5b6000341161030a5760405162461bcd60e51b815260206004820152601860248201527f457363726f773a205061796d656e74206e6f742073656e74000000000000000060448201526064016102b1565b33600090815260208190526040902060020154600160401b900460ff16156103845760405162461bcd60e51b815260206004820152602760248201527f457363726f773a20416c72656164792061637469766520666f722074686973206044820152666164647265737360c81b60648201526084016102b1565b33600090815260208190526040902080546001600160a01b039093166001600160a01b03199093169290921782553460018301556002909101805468ffffffffffffffffff191667ffffffffffffffff90921691909117600160401b179055565b80356001600160a01b03811681146103fc57600080fd5b919050565b60006020828403121561041357600080fd5b61041c826103e5565b9392505050565b6000806040838503121561043657600080fd5b61043f836103e5565b9150602083013567ffffffffffffffff8116811461045c57600080fd5b80915050925092905056fea26469706673582212202232dfda7b3c24cc8a652572bc0a0928b3bffcf17479200e80feaa8f8fe72a9464736f6c634300080f0033",
    "linkReferences": {}
  },
  "methodIdentifiers": {
    "agreements(address)": "3ce2aa99",
    "getAmount(address)": "f5a79767",
    "getSeller(address)": "a323d29e",
    "getTimeLimit(address)": "a734cef7",
    "isActive(address)": "9f8a13d7",
    "startEscrow(address,uint64)": "d0574aaf"
  },
  "id": 6
}